S01600004C45445F424C494E4B494E475F382E73726563F5
S11300000C942A000C9434000C9434000C943400A6
S11300100C9434000C9434000C9434000C9434008C
S11300200C9434000C9434000C9434000C9434007C
S11300300C9434000C9434000C9434000C9434006C
S11300400C9434000C9434000C9434000C9434005C
S11300500C94340011241FBECFE5D4E0DEBFCDBF25
S11300600E9436000C9455000C9400008FEF87BB5F
S113007089E02AEA95E528BB3FE946E851E031509A
S113008040405040E1F700C0000098BB3FE946E81B
S113009051E0315040405040E1F700C00000815031
S11100A051F718BA80E090E00895F894FFCF6D
S9030000FC
